{
  "contractName": "Faucet",
  "abi": [
    {
      "inputs": [
        {
          "internalType": "uint256",
          "name": "",
          "type": "uint256"
        }
      ],
      "name": "funders",
      "outputs": [
        {
          "internalType": "address",
          "name": "",
          "type": "address"
        }
      ],
      "stateMutability": "view",
      "type": "function",
      "constant": true
    },
    {
      "stateMutability": "payable",
      "type": "receive",
      "payable": true
    },
    {
      "inputs": [],
      "name": "addFunds",
      "outputs": [],
      "stateMutability": "payable",
      "type": "function",
      "payable": true
    },
    {
      "inputs": [],
      "name": "getAllFunders",
      "outputs": [
        {
          "internalType": "address[]",
          "name": "",
          "type": "address[]"
        }
      ],
      "stateMutability": "view",
      "type": "function",
      "constant": true
    },
    {
      "inputs": [
        {
          "internalType": "uint256",
          "name": "withdrawAmount",
          "type": "uint256"
        }
      ],
      "name": "withdraw",
      "outputs": [],
      "stateMutability": "nonpayable",
      "type": "function"
    }
  ],
  "bytecode": "0x608060405234801561001057600080fd5b50610437806100206000396000f3fe6080604052600436106100435760003560e01c80632e1a7d4d1461004f5780636fbbb55d14610078578063a26759cb146100a3578063dc0d3dff146100ad5761004a565b3661004a57005b600080fd5b34801561005b57600080fd5b506100766004803603810190610071919061027b565b6100ea565b005b34801561008457600080fd5b5061008d610134565b60405161009a9190610353565b60405180910390f35b6100ab6101c2565b005b3480156100b957600080fd5b506100d460048036038101906100cf919061027b565b610227565b6040516100e19190610338565b60405180910390f35b3373ffffffffffffffffffffffffffffffffffffffff166108fc829081150290604051600060405180830381858888f19350505050158015610130573d6000803e3d6000fd5b5050565b606060008054806020026020016040519081016040528092919081815260200182805480156101b857602002820191906000526020600020905b8160009054906101000a900473ffffffffffffffffffffffffffffffffffffffff1673ffffffffffffffffffffffffffffffffffffffff168152602001906001019080831161016e575b5050505050905090565b6000339080600181540180825580915050600190039060005260206000200160009091909190916101000a81548173ffffffffffffffffffffffffffffffffffffffff021916908373ffffffffffffffffffffffffffffffffffffffff160217905550565b6000818154811061023757600080fd5b906000526020600020016000915054906101000a900473ffffffffffffffffffffffffffffffffffffffff1681565b600081359050610275816103ea565b92915050565b60006020828403121561028d57600080fd5b600061029b84828501610266565b91505092915050565b60006102b083836102bc565b60208301905092915050565b6102c5816103ae565b82525050565b6102d4816103ae565b82525050565b60006102e582610385565b6102ef818561039d565b93506102fa83610375565b8060005b8381101561032b57815161031288826102a4565b975061031d83610390565b9250506001810190506102fe565b5085935050505092915050565b600060208201905061034d60008301846102cb565b92915050565b6000602082019050818103600083015261036d81846102da565b905092915050565b6000819050602082019050919050565b600081519050919050565b6000602082019050919050565b600082825260208201905092915050565b60006103b9826103c0565b9050919050565b600073ffffffffffffffffffffffffffffffffffffffff82169050919050565b6000819050919050565b6103f3816103e0565b81146103fe57600080fd5b5056fea26469706673582212206bbd6ef5ae914057c855fd345cf8c0cd67f0fbd58f2219170e6690aada900ccf64736f6c63430008040033",
  "immutableReferences": {},
  "source": "// SPDX-License-Identifier: MIT\r\npragma solidity >=0.4.22 <0.9.0;\r\n\r\ncontract Faucet {\r\n  address[] public funders;\r\n\r\n  receive() external payable {}\r\n\r\n  function addFunds() external payable {\r\n    funders.push(msg.sender);\r\n  }\r\n\r\n  function getAllFunders () external view returns (address[] memory) {\r\n    return funders;\r\n  }\r\n\r\n  function withdraw(uint withdrawAmount) external{\r\n    payable(msg.sender).transfer(withdrawAmount);\r\n  }\r\n}\r\n\r\n//const instance = await Faucet.deployed()\r\n// instance.addFunds({value: \"200000000000000\", from: accounts[1]}\r\n// 200000000000000000000000000000000\r\n// 0xa0b8de46875d72c3d8781f59b224894813a03c4b37f2cd19fa6e22afe620105b\r\n// 0xa0b8de46875d72c3d8781f59b224894800000000000000000000000000000000\r\n// 818E818E10000000 * 0000000000000000\r\n\r\n// 818E FB3509aA 9FBe 95aB == 110000009FBe95aB\r\n// 0x818EFB3509aA9FB9e5aBD9325a3fb568 1100000000003b13",
  "sourcePath": "H:\\blockchain projects\\faucet\\contracts\\Faucet.sol",
  "compiler": {
    "name": "solc",
    "version": "0.8.4+commit.c7e474f2.Emscripten.clang"
  },
  "schemaVersion": "3.4.14",
  "updatedAt": "2023-06-15T13:33:50.181Z",
  "networkType": "ethereum",
  "devdoc": {
    "kind": "dev",
    "methods": {},
    "version": 1
  },
  "userdoc": {
    "kind": "user",
    "methods": {},
    "version": 1
  }
}